{
  "contractName": "Girasol",
  "abi": [
    {
      "constant": true,
      "inputs": [],
      "name": "name",
      "outputs": [
        {
          "name": "",
          "type": "string"
        }
      ],
      "payable": false,
      "stateMutability": "view",
      "type": "function"
    },
    {
      "constant": false,
      "inputs": [
        {
          "name": "spender",
          "type": "address"
        },
        {
          "name": "value",
          "type": "uint256"
        }
      ],
      "name": "approve",
      "outputs": [
        {
          "name": "",
          "type": "bool"
        }
      ],
      "payable": false,
      "stateMutability": "nonpayable",
      "type": "function"
    },
    {
      "constant": true,
      "inputs": [],
      "name": "totalSupply",
      "outputs": [
        {
          "name": "",
          "type": "uint256"
        }
      ],
      "payable": false,
      "stateMutability": "view",
      "type": "function"
    },
    {
      "constant": false,
      "inputs": [
        {
          "name": "from",
          "type": "address"
        },
        {
          "name": "to",
          "type": "address"
        },
        {
          "name": "value",
          "type": "uint256"
        }
      ],
      "name": "transferFrom",
      "outputs": [
        {
          "name": "",
          "type": "bool"
        }
      ],
      "payable": false,
      "stateMutability": "nonpayable",
      "type": "function"
    },
    {
      "constant": true,
      "inputs": [],
      "name": "INITIAL_SUPPLY",
      "outputs": [
        {
          "name": "",
          "type": "uint256"
        }
      ],
      "payable": false,
      "stateMutability": "view",
      "type": "function"
    },
    {
      "constant": true,
      "inputs": [],
      "name": "decimals",
      "outputs": [
        {
          "name": "",
          "type": "uint8"
        }
      ],
      "payable": false,
      "stateMutability": "view",
      "type": "function"
    },
    {
      "constant": false,
      "inputs": [
        {
          "name": "spender",
          "type": "address"
        },
        {
          "name": "addedValue",
          "type": "uint256"
        }
      ],
      "name": "increaseAllowance",
      "outputs": [
        {
          "name": "",
          "type": "bool"
        }
      ],
      "payable": false,
      "stateMutability": "nonpayable",
      "type": "function"
    },
    {
      "constant": true,
      "inputs": [
        {
          "name": "",
          "type": "address"
        }
      ],
      "name": "contributions",
      "outputs": [
        {
          "name": "amount",
          "type": "uint256"
        },
        {
          "name": "block",
          "type": "uint256"
        },
        {
          "name": "owner",
          "type": "address"
        }
      ],
      "payable": false,
      "stateMutability": "view",
      "type": "function"
    },
    {
      "constant": true,
      "inputs": [
        {
          "name": "owner",
          "type": "address"
        }
      ],
      "name": "balanceOf",
      "outputs": [
        {
          "name": "",
          "type": "uint256"
        }
      ],
      "payable": false,
      "stateMutability": "view",
      "type": "function"
    },
    {
      "constant": true,
      "inputs": [],
      "name": "selected_protocol",
      "outputs": [
        {
          "name": "",
          "type": "uint256"
        }
      ],
      "payable": false,
      "stateMutability": "view",
      "type": "function"
    },
    {
      "constant": true,
      "inputs": [],
      "name": "symbol",
      "outputs": [
        {
          "name": "",
          "type": "string"
        }
      ],
      "payable": false,
      "stateMutability": "view",
      "type": "function"
    },
    {
      "constant": false,
      "inputs": [
        {
          "name": "spender",
          "type": "address"
        },
        {
          "name": "subtractedValue",
          "type": "uint256"
        }
      ],
      "name": "decreaseAllowance",
      "outputs": [
        {
          "name": "",
          "type": "bool"
        }
      ],
      "payable": false,
      "stateMutability": "nonpayable",
      "type": "function"
    },
    {
      "constant": false,
      "inputs": [
        {
          "name": "to",
          "type": "address"
        },
        {
          "name": "value",
          "type": "uint256"
        }
      ],
      "name": "transfer",
      "outputs": [
        {
          "name": "",
          "type": "bool"
        }
      ],
      "payable": false,
      "stateMutability": "nonpayable",
      "type": "function"
    },
    {
      "constant": true,
      "inputs": [
        {
          "name": "owner",
          "type": "address"
        },
        {
          "name": "spender",
          "type": "address"
        }
      ],
      "name": "allowance",
      "outputs": [
        {
          "name": "",
          "type": "uint256"
        }
      ],
      "payable": false,
      "stateMutability": "view",
      "type": "function"
    },
    {
      "constant": true,
      "inputs": [],
      "name": "POOLSIZE",
      "outputs": [
        {
          "name": "",
          "type": "uint256"
        }
      ],
      "payable": false,
      "stateMutability": "view",
      "type": "function"
    },
    {
      "inputs": [],
      "payable": false,
      "stateMutability": "nonpayable",
      "type": "constructor"
    },
    {
      "anonymous": false,
      "inputs": [
        {
          "indexed": true,
          "name": "from",
          "type": "address"
        },
        {
          "indexed": true,
          "name": "to",
          "type": "address"
        },
        {
          "indexed": false,
          "name": "value",
          "type": "uint256"
        }
      ],
      "name": "Transfer",
      "type": "event"
    },
    {
      "anonymous": false,
      "inputs": [
        {
          "indexed": true,
          "name": "owner",
          "type": "address"
        },
        {
          "indexed": true,
          "name": "spender",
          "type": "address"
        },
        {
          "indexed": false,
          "name": "value",
          "type": "uint256"
        }
      ],
      "name": "Approval",
      "type": "event"
    },
    {
      "constant": false,
      "inputs": [
        {
          "name": "id",
          "type": "uint256"
        }
      ],
      "name": "changeProtocol",
      "outputs": [],
      "payable": false,
      "stateMutability": "nonpayable",
      "type": "function"
    },
    {
      "constant": true,
      "inputs": [],
      "name": "getPoolSize",
      "outputs": [
        {
          "name": "",
          "type": "uint256"
        }
      ],
      "payable": false,
      "stateMutability": "view",
      "type": "function"
    },
    {
      "constant": true,
      "inputs": [],
      "name": "getState",
      "outputs": [
        {
          "components": [
            {
              "name": "Fulcrum",
              "type": "uint256"
            },
            {
              "name": "Compound",
              "type": "uint256"
            },
            {
              "name": "DAI",
              "type": "uint256"
            }
          ],
          "name": "",
          "type": "tuple"
        }
      ],
      "payable": false,
      "stateMutability": "view",
      "type": "function"
    },
    {
      "constant": true,
      "inputs": [],
      "name": "getTokenPrice",
      "outputs": [
        {
          "name": "",
          "type": "uint256"
        }
      ],
      "payable": false,
      "stateMutability": "view",
      "type": "function"
    },
    {
      "constant": true,
      "inputs": [
        {
          "name": "_owner",
          "type": "address"
        }
      ],
      "name": "assetBalanceOf",
      "outputs": [
        {
          "name": "",
          "type": "uint256"
        }
      ],
      "payable": false,
      "stateMutability": "view",
      "type": "function"
    },
    {
      "constant": false,
      "inputs": [
        {
          "name": "value",
          "type": "uint256"
        }
      ],
      "name": "add",
      "outputs": [],
      "payable": false,
      "stateMutability": "nonpayable",
      "type": "function"
    },
    {
      "constant": true,
      "inputs": [
        {
          "name": "value",
          "type": "uint256"
        }
      ],
      "name": "simWithdraw",
      "outputs": [
        {
          "name": "",
          "type": "uint256"
        },
        {
          "name": "",
          "type": "uint256"
        }
      ],
      "payable": false,
      "stateMutability": "view",
      "type": "function"
    },
    {
      "constant": true,
      "inputs": [],
      "name": "iDAIPrice",
      "outputs": [
        {
          "name": "",
          "type": "uint256"
        }
      ],
      "payable": false,
      "stateMutability": "view",
      "type": "function"
    },
    {
      "constant": false,
      "inputs": [],
      "name": "emergency_withdrawiDAI",
      "outputs": [],
      "payable": false,
      "stateMutability": "nonpayable",
      "type": "function"
    },
    {
      "constant": false,
      "inputs": [
        {
          "name": "value",
          "type": "uint256"
        }
      ],
      "name": "withdraw",
      "outputs": [],
      "payable": false,
      "stateMutability": "nonpayable",
      "type": "function"
    }
  ],
  "bytecode": "0x608060405273b6b09fbffba6a5c4631e5f7b2e3ee183ac259c0d600b60006101000a81548173ffffffffffffffffffffffffffffffffffffffff021916908373ffffffffffffffffffffffffffffffffffffffff16021790555073fce3aeeec8eb39304ed423c0d23c0a978da9e934600c60006101000a81548173ffffffffffffffffffffffffffffffffffffffff021916908373ffffffffffffffffffffffffffffffffffffffff16021790555073ad6d458402f60fd3bd25163575031acdce07538d600d60006101000a81548173ffffffffffffffffffffffffffffffffffffffff021916908373ffffffffffffffffffffffffffffffffffffffff1602179055503480156200011057600080fd5b506040805190810160405280600881526020017f4561726e204441490000000000000000000000000000000000000000000000008152506040805190810160405280600481526020017f6544414900000000000000000000000000000000000000000000000000000000815250601282600390805190602001906200019792919062000535565b508160049080519060200190620001b092919062000535565b5080600560006101000a81548160ff021916908360ff160217905550505050436006819055506000600a81905550600c60009054906101000a900473ffffffffffffffffffffffffffffffffffffffff16600860006101000a81548173ffffffffffffffffffffffffffffffffffffffff021916908373ffffffffffffffffffffffffffffffffffffffff160217905550600b60009054906101000a900473ffffffffffffffffffffffffffffffffffffffff16600960006101000a81548173ffffffffffffffffffffffffffffffffffffffff021916908373ffffffffffffffffffffffffffffffffffffffff160217905550600d60009054906101000a900473ffffffffffffffffffffffffffffffffffffffff16600760006101000a81548173ffffffffffffffffffffffffffffffffffffffff021916908373ffffffffffffffffffffffffffffffffffffffff160217905550600760009054906101000a900473ffffffffffffffffffffffffffffffffffffffff1673ffffffffffffffffffffffffffffffffffffffff1663095ea7b3600c60009054906101000a900473ffffffffffffffffffffffffffffffffffffffff167fffffffffffffffffffffffffffffffffffffffffffffffffffffffffffffffff6040518363ffffffff167c0100000000000000000000000000000000000000000000000000000000028152600401620003c492919062000648565b602060405180830381600087803b158015620003df57600080fd5b505af1158015620003f4573d6000803e3d6000fd5b505050506040513d601f19601f820116820180604052506200041a9190810190620005fa565b50600760009054906101000a900473ffffffffffffffffffffffffffffffffffffffff1673ffffffffffffffffffffffffffffffffffffffff1663095ea7b3600b60009054906101000a900473ffffffffffffffffffffffffffffffffffffffff167fffffffffffffffffffffffffffffffffffffffffffffffffffffffffffffffff6040518363ffffffff167c0100000000000000000000000000000000000000000000000000000000028152600401620004d892919062000648565b602060405180830381600087803b158015620004f357600080fd5b505af115801562000508573d6000803e3d6000fd5b505050506040513d601f19601f820116820180604052506200052e9190810190620005fa565b50620006d3565b828054600181600116156101000203166002900490600052602060002090601f016020900481019282601f106200057857805160ff1916838001178555620005a9565b82800160010185558215620005a9579182015b82811115620005a85782518255916020019190600101906200058b565b5b509050620005b89190620005bc565b5090565b620005e191905b80821115620005dd576000816000905550600101620005c3565b5090565b90565b6000620005f28251620006b3565b905092915050565b6000602082840312156200060d57600080fd5b60006200061d84828501620005e4565b91505092915050565b620006318162000675565b82525050565b6200064281620006bf565b82525050565b60006040820190506200065f600083018562000626565b6200066e602083018462000637565b9392505050565b6000620006828262000689565b9050919050565b600073ffffffffffffffffffffffffffffffffffffffff82169050919050565b6000819050919050565b60008115159050919050565b6000620006cc82620006a9565b9050919050565b612ac780620006e36000396000f3fe608060405234801561001057600080fd5b5060043610610190576000357c010000000000000000000000000000000000000000000000000000000090048063375c5a7e116100fb57806395d89b41116100b4578063ba8b06131161008e578063ba8b0613146104ac578063c814031a146104c8578063dd62ed3e146104d2578063dedfd3a61461050257610190565b806395d89b411461042e578063a457c2d71461044c578063a9059cbb1461047c57610190565b8063375c5a7e14610342578063395093511461036057806342e94c90146103905780634b94f50e146103c257806370a08231146103e057806370eb26931461041057610190565b806323845e4b1161014d57806323845e4b1461026b57806323b872dd14610289578063269b305c146102b95780632e1a7d4d146102ea5780632ff2e9dc14610306578063313ce5671461032457610190565b806306b3efd61461019557806306fdde03146101c5578063095ea7b3146101e35780631003e2d21461021357806318160ddd1461022f5780631865c57d1461024d575b600080fd5b6101af60048036036101aa91908101906124b7565b610520565b6040516101bc91906128f5565b60405180910390f35b6101cd610565565b6040516101da9190612858565b60405180910390f35b6101fd60048036036101f8919081019061256b565b610607565b60405161020a919061283d565b60405180910390f35b61022d600480360361022891908101906125d0565b61061e565b005b610237610a20565b60405161024491906128f5565b60405180910390f35b610255610a2a565b60405161026291906128da565b60405180910390f35b610273610cb1565b60405161028091906128f5565b60405180910390f35b6102a3600480360361029e919081019061251c565b610e86565b6040516102b0919061283d565b60405180910390f35b6102d360048036036102ce91908101906125d0565b610f37565b6040516102e1929190612910565b60405180910390f35b61030460048036036102ff91908101906125d0565b610fe5565b005b61030e611462565b60405161031b91906128f5565b60405180910390f35b61032c611467565b6040516103399190612970565b60405180910390f35b61034a61147e565b60405161035791906128f5565b60405180910390f35b61037a6004803603610375919081019061256b565b611541565b604051610387919061283d565b60405180910390f35b6103aa60048036036103a591908101906124b7565b6115e6565b6040516103b993929190612939565b60405180910390f35b6103ca611630565b6040516103d791906128f5565b60405180910390f35b6103fa60048036036103f591908101906124b7565b61168b565b60405161040791906128f5565b60405180910390f35b6104186116d3565b60405161042591906128f5565b60405180910390f35b6104366116d9565b6040516104439190612858565b60405180910390f35b6104666004803603610461919081019061256b565b61177b565b604051610473919061283d565b60405180910390f35b6104966004803603610491919081019061256b565b611820565b6040516104a3919061283d565b60405180910390f35b6104c660048036036104c191908101906125d0565b611837565b005b6104d0611841565b005b6104ec60048036036104e791908101906124e0565b611d37565b6040516104f991906128f5565b60405180910390f35b61050a611dbe565b60405161051791906128f5565b60405180910390f35b600061055e670de0b6b3a7640000610550610539611630565b6105428661168b565b611dc390919063ffffffff16565b611e0190919063ffffffff16565b9050919050565b606060038054600181600116156101000203166002900480601f0160208091040260200160405190810160405280929190818152602001828054600181600116156101000203166002900480156105fd5780601f106105d2576101008083540402835291602001916105fd565b820191906000526020600020905b8154815290600101906020018083116105e057829003601f168201915b5050505050905090565b6000610614338484611e2b565b6001905092915050565b600081111515610663576040517f08c379a000000000000000000000000000000000000000000000000000000000815260040161065a906128ba565b60405180910390fd5b600061066d611630565b9050600760009054906101000a900473ffffffffffffffffffffffffffffffffffffffff1673ffffffffffffffffffffffffffffffffffffffff166323b872dd3330856040518463ffffffff167c01000000000000000000000000000000000000000000000000000000000281526004016106ea939291906127b4565b602060405180830381600087803b15801561070457600080fd5b505af1158015610718573d6000803e3d6000fd5b505050506040513d601f19601f8201168201806040525061073c91908101906125a7565b151561077d576040517f08c379a00000000000000000000000000000000000000000000000000000000081526004016107749061289a565b60405180910390fd5b60006107928284611e0190919063ffffffff16565b905061079e3382611f8e565b6060604051908101604052808481526020014381526020013373ffffffffffffffffffffffffffffffffffffffff16815250600e60003373ffffffffffffffffffffffffffffffffffffffff1673ffffffffffffffffffffffffffffffffffffffff168152602001908152602001600020600082015181600001556020820151816001015560408201518160020160006101000a81548173ffffffffffffffffffffffffffffffffffffffff021916908373ffffffffffffffffffffffffffffffffffffffff1602179055509050506000600a54141561094557600860009054906101000a900473ffffffffffffffffffffffffffffffffffffffff1673ffffffffffffffffffffffffffffffffffffffff166340c10f1930856040518363ffffffff167c01000000000000000000000000000000000000000000000000000000000281526004016108f1929190612814565b602060405180830381600087803b15801561090b57600080fd5b505af115801561091f573d6000803e3d6000fd5b505050506040513d601f19601f8201168201806040525061094391908101906125f9565b505b6001600a541415610a1b57600960009054906101000a900473ffffffffffffffffffffffffffffffffffffffff1673ffffffffffffffffffffffffffffffffffffffff1663a0712d68846040518263ffffffff167c01000000000000000000000000000000000000000000000000000000000281526004016109c791906128f5565b602060405180830381600087803b1580156109e157600080fd5b505af11580156109f5573d6000803e3d6000fd5b505050506040513d601f19601f82011682018060405250610a1991908101906125f9565b505b505050565b6000600254905090565b610a32612445565b610a3a612445565b606060405190810160405280600860009054906101000a900473ffffffffffffffffffffffffffffffffffffffff1673ffffffffffffffffffffffffffffffffffffffff166306b3efd6306040518263ffffffff167c0100000000000000000000000000000000000000000000000000000000028152600401610abd9190612799565b60206040518083038186803b158015610ad557600080fd5b505afa158015610ae9573d6000803e3d6000fd5b505050506040513d601f19601f82011682018060405250610b0d91908101906125f9565b8152602001600960009054906101000a900473ffffffffffffffffffffffffffffffffffffffff1673ffffffffffffffffffffffffffffffffffffffff166370a08231306040518263ffffffff167c0100000000000000000000000000000000000000000000000000000000028152600401610b899190612799565b60206040518083038186803b158015610ba157600080fd5b505afa158015610bb5573d6000803e3d6000fd5b505050506040513d601f19601f82011682018060405250610bd991908101906125f9565b8152602001600760009054906101000a900473ffffffffffffffffffffffffffffffffffffffff1673ffffffffffffffffffffffffffffffffffffffff166370a08231306040518263ffffffff167c0100000000000000000000000000000000000000000000000000000000028152600401610c559190612799565b60206040518083038186803b158015610c6d57600080fd5b505afa158015610c81573d6000803e3d6000fd5b505050506040513d601f19601f82011682018060405250610ca591908101906125f9565b81525090508091505090565b600080610cbc610a20565b1415610ccb5760009050610e83565b6000600a541415610da457600860009054906101000a900473ffffffffffffffffffffffffffffffffffffffff1673ffffffffffffffffffffffffffffffffffffffff166306b3efd6306040518263ffffffff167c0100000000000000000000000000000000000000000000000000000000028152600401610d4d9190612799565b60206040518083038186803b158015610d6557600080fd5b505afa158015610d79573d6000803e3d6000fd5b505050506040513d601f19601f82011682018060405250610d9d91908101906125f9565b9050610e83565b6001600a541415610e7857600960009054906101000a900473ffffffffffffffffffffffffffffffffffffffff1673ffffffffffffffffffffffffffffffffffffffff166370a08231306040518263ffffffff167c0100000000000000000000000000000000000000000000000000000000028152600401610e269190612799565b60206040518083038186803b158015610e3e57600080fd5b505afa158015610e52573d6000803e3d6000fd5b505050506040513d601f19601f82011682018060405250610e7691908101906125f9565b505b610e80610a20565b90505b90565b6000610e938484846120e2565b610f2c8433610f2785600160008a73ffffffffffffffffffffffffffffffffffffffff1673ffffffffffffffffffffffffffffffffffffffff16815260200190815260200160002060003373ffffffffffffffffffffffffffffffffffffffff1673ffffffffffffffffffffffffffffffffffffffff168152602001908152602001600020546122ae90919063ffffffff16565b611e2b565b600190509392505050565b600080600083111515610f7f576040517f08c379a0000000000000000000000000000000000000000000000000000000008152600401610f76906128ba565b60405180910390fd5b610f883361168b565b831115610f9b57610f983361168b565b92505b6000610fa5611630565b90506000610fd6670de0b6b3a7640000610fc88488611dc390919063ffffffff16565b611e0190919063ffffffff16565b90508181935093505050915091565b60008111151561102a576040517f08c379a0000000000000000000000000000000000000000000000000000000008152600401611021906128ba565b60405180910390fd5b6110333361168b565b811115611046576110433361168b565b90505b6000611050611630565b90506000611081670de0b6b3a76400006110738486611dc390919063ffffffff16565b611e0190919063ffffffff16565b90506000600a54141561115f57600860009054906101000a900473ffffffffffffffffffffffffffffffffffffffff1673ffffffffffffffffffffffffffffffffffffffff16639dc29fac33836040518363ffffffff167c01000000000000000000000000000000000000000000000000000000000281526004016111079291906127eb565b602060405180830381600087803b15801561112157600080fd5b505af1158015611135573d6000803e3d6000fd5b505050506040513d601f19601f8201168201806040525061115991908101906125f9565b50611453565b6001600a54141561134557600960009054906101000a900473ffffffffffffffffffffffffffffffffffffffff1673ffffffffffffffffffffffffffffffffffffffff1663852a12e3826040518263ffffffff167c01000000000000000000000000000000000000000000000000000000000281526004016111e191906128f5565b602060405180830381600087803b1580156111fb57600080fd5b505af115801561120f573d6000803e3d6000fd5b505050506040513d601f19601f8201168201806040525061123391908101906125f9565b50600760009054906101000a900473ffffffffffffffffffffffffffffffffffffffff1673ffffffffffffffffffffffffffffffffffffffff1663a9059cbb33836040518363ffffffff167c01000000000000000000000000000000000000000000000000000000000281526004016112ad9291906127eb565b602060405180830381600087803b1580156112c757600080fd5b505af11580156112db573d6000803e3d6000fd5b505050506040513d601f19601f820116820180604052506112ff91908101906125a7565b1515611340576040517f08c379a00000000000000000000000000000000000000000000000000000000081526004016113379061287a565b60405180910390fd5b611452565b600760009054906101000a900473ffffffffffffffffffffffffffffffffffffffff1673ffffffffffffffffffffffffffffffffffffffff1663a9059cbb33836040518363ffffffff167c01000000000000000000000000000000000000000000000000000000000281526004016113be9291906127eb565b602060405180830381600087803b1580156113d857600080fd5b505af11580156113ec573d6000803e3d6000fd5b505050506040513d601f19601f8201168201806040525061141091908101906125a7565b1515611451576040517f08c379a00000000000000000000000000000000000000000000000000000000081526004016114489061287a565b60405180910390fd5b5b5b61145d33846122d0565b505050565b600081565b6000600560009054906101000a900460ff16905090565b6000600860009054906101000a900473ffffffffffffffffffffffffffffffffffffffff1673ffffffffffffffffffffffffffffffffffffffff16637ff9b5966040518163ffffffff167c010000000000000000000000000000000000000000000000000000000002815260040160206040518083038186803b15801561150457600080fd5b505afa158015611518573d6000803e3d6000fd5b505050506040513d601f19601f8201168201806040525061153c91908101906125f9565b905090565b60006115dc33846115d785600160003373ffffffffffffffffffffffffffffffffffffffff1673ffffffffffffffffffffffffffffffffffffffff16815260200190815260200160002060008973ffffffffffffffffffffffffffffffffffffffff1673ffffffffffffffffffffffffffffffffffffffff1681526020019081526020016000205461242490919063ffffffff16565b611e2b565b6001905092915050565b600e6020528060005260406000206000915090508060000154908060010154908060020160009054906101000a900473ffffffffffffffffffffffffffffffffffffffff16905083565b60008061163b610a20565b141561164a5760019050611688565b611685611655610a20565b611677670de0b6b3a7640000611669610cb1565b611dc390919063ffffffff16565b611e0190919063ffffffff16565b90505b90565b60008060008373ffffffffffffffffffffffffffffffffffffffff1673ffffffffffffffffffffffffffffffffffffffff168152602001908152602001600020549050919050565b600a5481565b606060048054600181600116156101000203166002900480601f0160208091040260200160405190810160405280929190818152602001828054600181600116156101000203166002900480156117715780601f1061174657610100808354040283529160200191611771565b820191906000526020600020905b81548152906001019060200180831161175457829003601f168201915b5050505050905090565b6000611816338461181185600160003373ffffffffffffffffffffffffffffffffffffffff1673ffffffffffffffffffffffffffffffffffffffff16815260200190815260200160002060008973ffffffffffffffffffffffffffffffffffffffff1673ffffffffffffffffffffffffffffffffffffffff168152602001908152602001600020546122ae90919063ffffffff16565b611e2b565b6001905092915050565b600061182d3384846120e2565b6001905092915050565b80600a8190555050565b600860009054906101000a900473ffffffffffffffffffffffffffffffffffffffff1673ffffffffffffffffffffffffffffffffffffffff16639dc29fac33600860009054906101000a900473ffffffffffffffffffffffffffffffffffffffff1673ffffffffffffffffffffffffffffffffffffffff166306b3efd6306040518263ffffffff167c01000000000000000000000000000000000000000000000000000000000281526004016118f79190612799565b60206040518083038186803b15801561190f57600080fd5b505afa158015611923573d6000803e3d6000fd5b505050506040513d601f19601f8201168201806040525061194791908101906125f9565b6040518363ffffffff167c01000000000000000000000000000000000000000000000000000000000281526004016119809291906127eb565b602060405180830381600087803b15801561199a57600080fd5b505af11580156119ae573d6000803e3d6000fd5b505050506040513d601f19601f820116820180604052506119d291908101906125f9565b50600960009054906101000a900473ffffffffffffffffffffffffffffffffffffffff1673ffffffffffffffffffffffffffffffffffffffff1663852a12e3600960009054906101000a900473ffffffffffffffffffffffffffffffffffffffff1673ffffffffffffffffffffffffffffffffffffffff166370a08231306040518263ffffffff167c0100000000000000000000000000000000000000000000000000000000028152600401611a889190612799565b60206040518083038186803b158015611aa057600080fd5b505afa158015611ab4573d6000803e3d6000fd5b505050506040513d601f19601f82011682018060405250611ad891908101906125f9565b6040518263ffffffff167c0100000000000000000000000000000000000000000000000000000000028152600401611b1091906128f5565b602060405180830381600087803b158015611b2a57600080fd5b505af1158015611b3e573d6000803e3d6000fd5b505050506040513d601f19601f82011682018060405250611b6291908101906125f9565b50600760009054906101000a900473ffffffffffffffffffffffffffffffffffffffff1673ffffffffffffffffffffffffffffffffffffffff1663a9059cbb33600760009054906101000a900473ffffffffffffffffffffffffffffffffffffffff1673ffffffffffffffffffffffffffffffffffffffff166370a08231306040518263ffffffff167c0100000000000000000000000000000000000000000000000000000000028152600401611c199190612799565b60206040518083038186803b158015611c3157600080fd5b505afa158015611c45573d6000803e3d6000fd5b505050506040513d601f19601f82011682018060405250611c6991908101906125f9565b6040518363ffffffff167c0100000000000000000000000000000000000000000000000000000000028152600401611ca29291906127eb565b602060405180830381600087803b158015611cbc57600080fd5b505af1158015611cd0573d6000803e3d6000fd5b505050506040513d601f19601f82011682018060405250611cf491908101906125a7565b1515611d35576040517f08c379a0000000000000000000000000000000000000000000000000000000008152600401611d2c9061287a565b60405180910390fd5b565b6000600160008473ffffffffffffffffffffffffffffffffffffffff1673ffffffffffffffffffffffffffffffffffffffff16815260200190815260200160002060008373ffffffffffffffffffffffffffffffffffffffff1673ffffffffffffffffffffffffffffffffffffffff16815260200190815260200160002054905092915050565b600081565b600080831415611dd65760009050611dfb565b60008284029050828482811515611de957fe5b04141515611df657600080fd5b809150505b92915050565b60008082111515611e1157600080fd5b60008284811515611e1e57fe5b0490508091505092915050565b600073ffffffffffffffffffffffffffffffffffffffff168273ffffffffffffffffffffffffffffffffffffffff1614151515611e6757600080fd5b600073ffffffffffffffffffffffffffffffffffffffff168373ffffffffffffffffffffffffffffffffffffffff1614151515611ea357600080fd5b80600160008573ffffffffffffffffffffffffffffffffffffffff1673ffffffffffffffffffffffffffffffffffffffff16815260200190815260200160002060008473ffffffffffffffffffffffffffffffffffffffff1673ffffffffffffffffffffffffffffffffffffffff168152602001908152602001600020819055508173ffffffffffffffffffffffffffffffffffffffff168373ffffffffffffffffffffffffffffffffffffffff167f8c5be1e5ebec7d5bd14f71427d1e84f3dd0314c0f7b2291e5b200ac8c7c3b92583604051611f8191906128f5565b60405180910390a3505050565b600073ffffffffffffffffffffffffffffffffffffffff168273ffffffffffffffffffffffffffffffffffffffff1614151515611fca57600080fd5b611fdf8160025461242490919063ffffffff16565b600281905550612036816000808573ffffffffffffffffffffffffffffffffffffffff1673ffffffffffffffffffffffffffffffffffffffff1681526020019081526020016000205461242490919063ffffffff16565b6000808473ffffffffffffffffffffffffffffffffffffffff1673ffffffffffffffffffffffffffffffffffffffff168152602001908152602001600020819055508173ffffffffffffffffffffffffffffffffffffffff16600073ffffffffffffffffffffffffffffffffffffffff167fddf252ad1be2c89b69c2b068fc378daa952ba7f163c4a11628f55a4df523b3ef836040516120d691906128f5565b60405180910390a35050565b600073ffffffffffffffffffffffffffffffffffffffff168273ffffffffffffffffffffffffffffffffffffffff161415151561211e57600080fd5b61216f816000808673ffffffffffffffffffffffffffffffffffffffff1673ffffffffffffffffffffffffffffffffffffffff168152602001908152602001600020546122ae90919063ffffffff16565b6000808573ffffffffffffffffffffffffffffffffffffffff1673ffffffffffffffffffffffffffffffffffffffff16815260200190815260200160002081905550612202816000808573ffffffffffffffffffffffffffffffffffffffff1673ffffffffffffffffffffffffffffffffffffffff1681526020019081526020016000205461242490919063ffffffff16565b6000808473ffffffffffffffffffffffffffffffffffffffff1673ffffffffffffffffffffffffffffffffffffffff168152602001908152602001600020819055508173ffffffffffffffffffffffffffffffffffffffff168373ffffffffffffffffffffffffffffffffffffffff167fddf252ad1be2c89b69c2b068fc378daa952ba7f163c4a11628f55a4df523b3ef836040516122a191906128f5565b60405180910390a3505050565b60008282111515156122bf57600080fd5b600082840390508091505092915050565b600073ffffffffffffffffffffffffffffffffffffffff168273ffffffffffffffffffffffffffffffffffffffff161415151561230c57600080fd5b612321816002546122ae90919063ffffffff16565b600281905550612378816000808573ffffffffffffffffffffffffffffffffffffffff1673ffffffffffffffffffffffffffffffffffffffff168152602001908152602001600020546122ae90919063ffffffff16565b6000808473ffffffffffffffffffffffffffffffffffffffff1673ffffffffffffffffffffffffffffffffffffffff16815260200190815260200160002081905550600073ffffffffffffffffffffffffffffffffffffffff168273ffffffffffffffffffffffffffffffffffffffff167fddf252ad1be2c89b69c2b068fc378daa952ba7f163c4a11628f55a4df523b3ef8360405161241891906128f5565b60405180910390a35050565b600080828401905083811015151561243b57600080fd5b8091505092915050565b6060604051908101604052806000815260200160008152602001600081525090565b600061247382356129eb565b905092915050565b600061248782516129fd565b905092915050565b600061249b8235612a09565b905092915050565b60006124af8251612a09565b905092915050565b6000602082840312156124c957600080fd5b60006124d784828501612467565b91505092915050565b600080604083850312156124f357600080fd5b600061250185828601612467565b925050602061251285828601612467565b9150509250929050565b60008060006060848603121561253157600080fd5b600061253f86828701612467565b935050602061255086828701612467565b92505060406125618682870161248f565b9150509250925092565b6000806040838503121561257e57600080fd5b600061258c85828601612467565b925050602061259d8582860161248f565b9150509250929050565b6000602082840312156125b957600080fd5b60006125c78482850161247b565b91505092915050565b6000602082840312156125e257600080fd5b60006125f08482850161248f565b91505092915050565b60006020828403121561260b57600080fd5b6000612619848285016124a3565b91505092915050565b61262b81612a13565b82525050565b61263a81612996565b82525050565b612649816129a8565b82525050565b600061265a8261298b565b80845261266e816020860160208601612a49565b61267781612a7c565b602085010191505092915050565b6000601482527f7769746864726177206e6f7420616c6c6f7765640000000000000000000000006020830152604082019050919050565b6000601a82527f5472616e7366657220746f6b656e206e6f7420616c6c6f7765640000000000006020830152604082019050919050565b6000600a82527f76616c7565203d3d2030000000000000000000000000000000000000000000006020830152604082019050919050565b606082016000820151612740600085018261276c565b506020820151612753602085018261276c565b506040820151612766604085018261276c565b50505050565b612775816129d4565b82525050565b612784816129d4565b82525050565b612793816129de565b82525050565b60006020820190506127ae6000830184612631565b92915050565b60006060820190506127c96000830186612622565b6127d66020830185612631565b6127e3604083018461277b565b949350505050565b60006040820190506128006000830185612622565b61280d602083018461277b565b9392505050565b60006040820190506128296000830185612631565b612836602083018461277b565b9392505050565b60006020820190506128526000830184612640565b92915050565b60006020820190508181036000830152612872818461264f565b905092915050565b6000602082019050818103600083015261289381612685565b9050919050565b600060208201905081810360008301526128b3816126bc565b9050919050565b600060208201905081810360008301526128d3816126f3565b9050919050565b60006060820190506128ef600083018461272a565b92915050565b600060208201905061290a600083018461277b565b92915050565b6000604082019050612925600083018561277b565b612932602083018461277b565b9392505050565b600060608201905061294e600083018661277b565b61295b602083018561277b565b6129686040830184612631565b949350505050565b6000602082019050612985600083018461278a565b92915050565b600081519050919050565b60006129a1826129b4565b9050919050565b60008115159050919050565b600073ffffffffffffffffffffffffffffffffffffffff82169050919050565b6000819050919050565b600060ff82169050919050565b60006129f6826129b4565b9050919050565b60008115159050919050565b6000819050919050565b6000612a1e82612a25565b9050919050565b6000612a3082612a37565b9050919050565b6000612a42826129b4565b9050919050565b60005b83811015612a67578082015181840152602081019050612a4c565b83811115612a76576000848401525b50505050565b6000601f19601f830116905091905056fea265627a7a7230582091405d5621fe01cdd979150cea67371434c6ccea6d64b3cb38d1daee64baca026c6578706572696d656e74616cf50037",
  "source": "pragma solidity ^0.5.2;\npragma experimental ABIEncoderV2;\n\nimport \"openzeppelin-solidity/contracts/token/ERC20/ERC20.sol\";\nimport \"openzeppelin-solidity/contracts/token/ERC20/ERC20Detailed.sol\";\nimport \"openzeppelin-solidity/contracts/token/ERC20/IERC20.sol\";\n\ninterface iToken {\n    function mint(address receiver, uint256 depositAmount) external returns (uint256 mintAmount);\n\n    function burn(\n        address receiver,\n        uint256 burnAmount)\n        external\n        returns (uint256 loanAmountPaid);\n\n    function claimLoanToken()\n        external\n        returns (uint256 claimedAmount);\n\n    function donateAsset(\n        address tokenAddress)\n        external\n        returns (bool);\n\n    function assetBalanceOf(\n        address _owner)\n        external\n        view\n        returns (uint256);\n\n    function tokenPrice()\n        external\n        view\n        returns (uint256 price);\n}\n\ninterface cToken {\n    function mint(uint mintAmount) external returns (uint);\n    function redeemUnderlying(uint redeemAmount) external  returns (uint);\n    function exchangeRateCurrent() external returns (uint);\n    function balanceOf(address account) external view returns (uint);\n}\n\ncontract Girasol is ERC20, ERC20Detailed {\n\n    uint256 public constant INITIAL_SUPPLY = 0 /*0 * (10 ** uint256(decimals))*/;\n    uint256 public constant POOLSIZE = 0 /*0 * (10 ** uint256(decimals))*/;\n    uint block_start;\n    IERC20 DAI;\n    iToken iDAI;\n    cToken cDAI;\n    uint256 public selected_protocol; // 0 = Fulcum , 1 = Compound\n\n\n    // Tokens\n    address cDAI_ropsten = 0xb6b09fBffBa6A5C4631e5F7B2e3Ee183aC259c0d;\n    address iDAI_ropsten = 0xFCE3aEeEC8EB39304ED423c0d23c0A978DA9E934;\n    address dai_ropsten = 0xaD6D458402F60fD3Bd25163575031ACDce07538D; // Too many dai on ropsten 0x25a01a05C188DaCBCf1D61Af55D4a5B4021F7eeD\n\n    /*\n     *  Storage\n     */\n    mapping (address => Contribution) public contributions;\n\n    struct Contribution {\n        uint256 amount;\n        uint block;\n        address owner;\n    }\n\n    struct State {\n        uint256 Fulcrum;\n        uint256 Compound;\n        uint256 DAI;\n    }\n\n    constructor() ERC20Detailed(\"Earn DAI\", \"eDAI\", 18) public\n    {\n        block_start = block.number;\n        selected_protocol = 0;\n\n        // Fulcrum\n        iDAI = iToken(iDAI_ropsten);\n        cDAI = cToken(cDAI_ropsten);\n\n        // Approve transfer\n        DAI = IERC20(dai_ropsten);\n        DAI.approve(iDAI_ropsten, 2**256 - 1);\n        DAI.approve(cDAI_ropsten, 2**256 - 1);\n    }\n\n    function changeProtocol(uint256 id) public {\n        selected_protocol = id;\n    }\n\n    function getPoolSize() public view returns (uint256) {\n        if(totalSupply() == 0) {\n            return 0;\n        }\n\n        if( selected_protocol == 0) {\n            return iDAI.assetBalanceOf(address(this));\n        }\n\n        if( selected_protocol == 1) {\n            cDAI.balanceOf(address(this));\n        }\n\n        return totalSupply();\n    }\n\n    function getState() public view returns (State memory){\n        State memory current = State(\n            iDAI.assetBalanceOf(address(this)),\n            cDAI.balanceOf(address(this)),\n            DAI.balanceOf(address(this))\n        );\n        \n        return current;\n    }\n\n    // https://ethereum.stackexchange.com/questions/15090/cant-do-any-integer-division\n    function getTokenPrice() public view returns (uint256){\n        if(totalSupply() == 0) {\n            return 1;\n        }\n\n\t    return getPoolSize()\n                .mul(10**18)\n                .div(totalSupply());\n    }\n\n    function assetBalanceOf(\n        address _owner)\n        public\n        view\n        returns (uint256)\n    {\n        return balanceOf(_owner)\n            .mul(getTokenPrice())\n            .div(10**18);\n    }\n\n    function add(uint256 value) public {\n        require (value > 0, \"value == 0\");\n\n        uint256 priceToken = getTokenPrice();\n\n        require(DAI.transferFrom(msg.sender, address(this), value), \"Transfer token not allowed\");\n\n        uint256 toBeMinted = value.div(priceToken);\n        _mint(msg.sender, toBeMinted);\n\n        contributions[msg.sender] = Contribution(value, block.number, msg.sender);\n\n        // Mint\n        if( selected_protocol == 0) {\n            iDAI.mint(address(this), value);\n        }\n\n        if( selected_protocol == 1) {\n            cDAI.mint(value);\n        }\n    }\n\n    function simWithdraw(uint256 value) public view returns (uint256, uint256){\n        require(value > 0, \"value == 0\");\n\n        if (value > balanceOf(msg.sender)) {\n            value = balanceOf(msg.sender);\n        }\n        \n        uint256 priceToken = getTokenPrice();\n        uint256 willWithdraw = value.mul(priceToken).div(10**18);\n        return (priceToken, willWithdraw);\n    }\n\n    function iDAIPrice() public view returns (uint256){\n        return iDAI.tokenPrice();\n    }\n\n    function emergency_withdrawiDAI() public {\n        iDAI.burn(msg.sender, iDAI.assetBalanceOf(address(this)));\n        cDAI.redeemUnderlying(cDAI.balanceOf(address(this)));\n        require(DAI.transfer(msg.sender, DAI.balanceOf(address(this))), \"withdraw not allowed\");\n    }\n\n    function withdraw(uint256 value) public {\n        require(value > 0, \"value == 0\");\n\n        if (value > balanceOf(msg.sender)) {\n            value = balanceOf(msg.sender);\n        }\n\n        uint256 priceToken = getTokenPrice();\n        uint256 willWithdraw = value.mul(priceToken).div(10**18);\n\n        if( selected_protocol == 0) {\n            iDAI.burn(msg.sender, willWithdraw);\n        } else if ( selected_protocol == 1) {\n            cDAI.redeemUnderlying(willWithdraw);\n            require(DAI.transfer(msg.sender, willWithdraw), \"withdraw not allowed\");\n        } else {\n            require(DAI.transfer(msg.sender, willWithdraw), \"withdraw not allowed\");\n        }\n\n        _burn(msg.sender, value);\n    }\n\n    // Reverting on standard method is standard now\n    // function()\n    //     external\n    //     payable\n    // {\n    //     revert();\n    // }\n\n}",
  "sourcePath": "/Users/mickdegraaf/Documents/development/earn-network/contracts/Gira.sol",
  "compiler": {
    "name": "solc",
    "version": "0.5.3+commit.10d17f24.Emscripten.clang"
  },
  "schemaVersion": "3.0.2",
  "updatedAt": "2019-05-19T18:01:54.152Z",
  "devdoc": {
    "methods": {
      "allowance(address,address)": {
        "details": "Function to check the amount of tokens that an owner allowed to a spender.",
        "params": {
          "owner": "address The address which owns the funds.",
          "spender": "address The address which will spend the funds."
        },
        "return": "A uint256 specifying the amount of tokens still available for the spender."
      },
      "approve(address,uint256)": {
        "details": "Approve the passed address to spend the specified amount of tokens on behalf of msg.sender. Beware that changing an allowance with this method brings the risk that someone may use both the old and the new allowance by unfortunate transaction ordering. One possible solution to mitigate this race condition is to first reduce the spender's allowance to 0 and set the desired value afterwards: https://github.com/ethereum/EIPs/issues/20#issuecomment-263524729",
        "params": {
          "spender": "The address which will spend the funds.",
          "value": "The amount of tokens to be spent."
        }
      },
      "balanceOf(address)": {
        "details": "Gets the balance of the specified address.",
        "params": {
          "owner": "The address to query the balance of."
        },
        "return": "A uint256 representing the amount owned by the passed address."
      },
      "decimals()": {
        "return": "the number of decimals of the token."
      },
      "decreaseAllowance(address,uint256)": {
        "details": "Decrease the amount of tokens that an owner allowed to a spender. approve should be called when _allowed[msg.sender][spender] == 0. To decrement allowed value is better to use this function to avoid 2 calls (and wait until the first transaction is mined) From MonolithDAO Token.sol Emits an Approval event.",
        "params": {
          "spender": "The address which will spend the funds.",
          "subtractedValue": "The amount of tokens to decrease the allowance by."
        }
      },
      "increaseAllowance(address,uint256)": {
        "details": "Increase the amount of tokens that an owner allowed to a spender. approve should be called when _allowed[msg.sender][spender] == 0. To increment allowed value is better to use this function to avoid 2 calls (and wait until the first transaction is mined) From MonolithDAO Token.sol Emits an Approval event.",
        "params": {
          "addedValue": "The amount of tokens to increase the allowance by.",
          "spender": "The address which will spend the funds."
        }
      },
      "name()": {
        "return": "the name of the token."
      },
      "symbol()": {
        "return": "the symbol of the token."
      },
      "totalSupply()": {
        "details": "Total number of tokens in existence"
      },
      "transfer(address,uint256)": {
        "details": "Transfer token to a specified address",
        "params": {
          "to": "The address to transfer to.",
          "value": "The amount to be transferred."
        }
      },
      "transferFrom(address,address,uint256)": {
        "details": "Transfer tokens from one address to another. Note that while this function emits an Approval event, this is not required as per the specification, and other compliant implementations may not emit the event.",
        "params": {
          "from": "address The address which you want to send tokens from",
          "to": "address The address which you want to transfer to",
          "value": "uint256 the amount of tokens to be transferred"
        }
      }
    }
  },
  "userdoc": {
    "methods": {}
  }
}